{
  "contractName": "SimpleStorage",
  "abi": [
    {
      "constant": true,
      "inputs": [],
      "name": "owner",
      "outputs": [
        {
          "name": "",
          "type": "address"
        }
      ],
      "payable": false,
      "stateMutability": "view",
      "type": "function"
    },
    {
      "inputs": [],
      "payable": false,
      "stateMutability": "nonpayable",
      "type": "constructor"
    },
    {
      "constant": true,
      "inputs": [],
      "name": "getNumberOfMessages",
      "outputs": [
        {
          "name": "num",
          "type": "uint256"
        }
      ],
      "payable": false,
      "stateMutability": "view",
      "type": "function"
    },
    {
      "constant": true,
      "inputs": [
        {
          "name": "index",
          "type": "uint256"
        }
      ],
      "name": "getMessage",
      "outputs": [
        {
          "name": "author",
          "type": "address"
        },
        {
          "name": "text",
          "type": "string"
        },
        {
          "name": "value",
          "type": "uint256"
        }
      ],
      "payable": false,
      "stateMutability": "view",
      "type": "function"
    },
    {
      "constant": false,
      "inputs": [
        {
          "name": "_text",
          "type": "string"
        }
      ],
      "name": "postMessage",
      "outputs": [],
      "payable": true,
      "stateMutability": "payable",
      "type": "function"
    },
    {
      "constant": true,
      "inputs": [],
      "name": "getNextValue",
      "outputs": [
        {
          "name": "value",
          "type": "uint256"
        }
      ],
      "payable": false,
      "stateMutability": "view",
      "type": "function"
    }
  ],
  "bytecode": "0x608060405234801561001057600080fd5b5033600160006101000a81548173ffffffffffffffffffffffffffffffffffffffff021916908373ffffffffffffffffffffffffffffffffffffffff160217905550610750806100616000396000f3fe60806040526004361061006d576000357c0100000000000000000000000000000000000000000000000000000000900463ffffffff16806345e63f22146100725780636630f88f1461009d57806386f79edb146101585780638da5cb5b14610246578063d4adef5d1461029d575b600080fd5b34801561007e57600080fd5b506100876102c8565b6040518082815260200191505060405180910390f35b610156600480360360208110156100b357600080fd5b81019080803590602001906401000000008111156100d057600080fd5b8201836020820111156100e257600080fd5b8035906020019184600183028401116401000000008311171561010457600080fd5b91908080601f016020809104026020016040519081016040528093929190818152602001838380828437600081840152601f19601f8201169050808301925050505050505091929192905050506102d4565b005b34801561016457600080fd5b506101916004803603602081101561017b57600080fd5b81019080803590602001909291905050506104dd565b604051808473ffffffffffffffffffffffffffffffffffffffff1673ffffffffffffffffffffffffffffffffffffffff16815260200180602001838152602001828103825284818151815260200191508051906020019080838360005b838110156102095780820151818401526020810190506101ee565b50505050905090810190601f1680156102365780820380516001836020036101000a031916815260200191505b5094505050505060405180910390f35b34801561025257600080fd5b5061025b6105db565b604051808273ffffffffffffffffffffffffffffffffffffffff1673ffffffffffffffffffffffffffffffffffffffff16815260200191505060405180910390f35b3480156102a957600080fd5b506102b2610601565b6040518082815260200191505060405180910390f35b60008080549050905090565b60003411151561034c576040517f08c379a000000000000000000000000000000000000000000000000000000000815260040180806020018281038252600f8152602001807f4e6f20455448207761732073656e74000000000000000000000000000000000081525060200191505060405180910390fd5b6000808054905011156103fe57610361610601565b341415156103fd576040517f08c379a00000000000000000000000000000000000000000000000000000000081526004018080602001828103825260248152602001807f54686520696e636f727265637420616d6f756e74206f6620455448207761732081526020017f73656e740000000000000000000000000000000000000000000000000000000081525060400191505060405180910390fd5b5b610406610647565b6060604051908101604052803373ffffffffffffffffffffffffffffffffffffffff1681526020018381526020013481525090506000819080600181540180825580915050906001820390600052602060002090600302016000909192909190915060008201518160000160006101000a81548173ffffffffffffffffffffffffffffffffffffffff021916908373ffffffffffffffffffffffffffffffffffffffff16021790555060208201518160010190805190602001906104cb92919061067f565b50604082015181600201555050505050565b600060606000806000858154811015156104f357fe5b906000526020600020906003020190508060000160009054906101000a900473ffffffffffffffffffffffffffffffffffffffff16816001018260020154818054600181600116156101000203166002900480601f0160208091040260200160405190810160405280929190818152602001828054600181600116156101000203166002900480156105c65780601f1061059b576101008083540402835291602001916105c6565b820191906000526020600020905b8154815290600101906020018083116105a957829003601f168201915b50505050509150935093509350509193909250565b600160009054906101000a900473ffffffffffffffffffffffffffffffffffffffff1681565b600080600060016000805490500381548110151561061b57fe5b906000526020600020906003020160020154905060646007820281151561063e57fe5b04810191505090565b606060405190810160405280600073ffffffffffffffffffffffffffffffffffffffff16815260200160608152602001600081525090565b828054600181600116156101000203166002900490600052602060002090601f016020900481019282601f106106c057805160ff19168380011785556106ee565b828001600101855582156106ee579182015b828111156106ed5782518255916020019190600101906106d2565b5b5090506106fb91906106ff565b5090565b61072191905b8082111561071d576000816000905550600101610705565b5090565b9056fea165627a7a723058203fa33a95751a0e431c241ecf4224769ffdec560584298fd2cd295d4761d0b3dc0029",
  "source": "pragma solidity >=0.4.21 <0.6.0;\r\n\r\ncontract SimpleStorage {\r\n\r\n  struct Message {\r\n    address author;\r\n    string text;\r\n    uint value;\r\n  }\r\n\r\n  Message[] messages;\r\n  address public owner;\r\n\r\n  constructor() public {\r\n    owner = msg.sender;\r\n  }\r\n\r\n  function getNumberOfMessages() public view returns (uint num)\r\n  {\r\n    return messages.length;\r\n  }\r\n\r\n  function getMessage(uint index)\r\n    public\r\n    view\r\n    returns (\r\n      address author,\r\n      string memory text,\r\n      uint value\r\n    )\r\n  {\r\n    Message storage m = messages[index];\r\n    return (\r\n      m.author,\r\n      m.text,\r\n      m.value\r\n    );\r\n  }\r\n\r\n  function postMessage(string memory _text) public payable\r\n  {\r\n    require(msg.value > 0, \"No ETH was sent\");\r\n    if(messages.length > 0) {\r\n      require(msg.value == getNextValue(), \"The incorrect amount of ETH was sent\");\r\n    }\r\n\r\n    Message memory m = Message({\r\n      author: msg.sender,\r\n      text: _text,\r\n      value: msg.value\r\n    });\r\n    messages.push(m);\r\n  }\r\n\r\n  function getNextValue() public view returns (uint value)\r\n  {\r\n    uint currentValue = messages[messages.length - 1].value;\r\n    return currentValue + (currentValue * 7 / 100);\r\n  }\r\n\r\n}",
  "sourcePath": "C:/Users/mvandani/Code/Sylph/Project3/src/contracts/SimpleStorage.sol",
  "compiler": {
    "name": "solc",
    "version": "0.5.0+commit.1d4f565a.Emscripten.clang"
  },
  "schemaVersion": "3.0.9",
  "updatedAt": "2019-11-07T19:46:19.813Z",
  "devdoc": {
    "methods": {}
  },
  "userdoc": {
    "methods": {}
  }
}