{
  "contractName": "SimpleStorage",
  "abi": [
    {
      "constant": true,
      "inputs": [
        {
          "name": "",
          "type": "address"
        }
      ],
      "name": "authorBalances",
      "outputs": [
        {
          "name": "",
          "type": "uint256"
        }
      ],
      "payable": false,
      "stateMutability": "view",
      "type": "function"
    },
    {
      "constant": true,
      "inputs": [],
      "name": "expiresAt",
      "outputs": [
        {
          "name": "",
          "type": "uint256"
        }
      ],
      "payable": false,
      "stateMutability": "view",
      "type": "function"
    },
    {
      "constant": true,
      "inputs": [],
      "name": "owner",
      "outputs": [
        {
          "name": "",
          "type": "address"
        }
      ],
      "payable": false,
      "stateMutability": "view",
      "type": "function"
    },
    {
      "inputs": [
        {
          "name": "_expiresAt",
          "type": "uint256"
        }
      ],
      "payable": false,
      "stateMutability": "nonpayable",
      "type": "constructor"
    },
    {
      "constant": true,
      "inputs": [],
      "name": "getNumberOfMessages",
      "outputs": [
        {
          "name": "num",
          "type": "uint256"
        }
      ],
      "payable": false,
      "stateMutability": "view",
      "type": "function"
    },
    {
      "constant": true,
      "inputs": [
        {
          "name": "index",
          "type": "uint256"
        }
      ],
      "name": "getMessage",
      "outputs": [
        {
          "name": "author",
          "type": "address"
        },
        {
          "name": "text",
          "type": "string"
        },
        {
          "name": "value",
          "type": "uint256"
        }
      ],
      "payable": false,
      "stateMutability": "view",
      "type": "function"
    },
    {
      "constant": false,
      "inputs": [
        {
          "name": "_text",
          "type": "string"
        }
      ],
      "name": "postMessage",
      "outputs": [],
      "payable": true,
      "stateMutability": "payable",
      "type": "function"
    },
    {
      "constant": true,
      "inputs": [],
      "name": "getNextValue",
      "outputs": [
        {
          "name": "value",
          "type": "uint256"
        }
      ],
      "payable": false,
      "stateMutability": "view",
      "type": "function"
    },
    {
      "constant": true,
      "inputs": [],
      "name": "getAuthorBalance",
      "outputs": [
        {
          "name": "num",
          "type": "uint256"
        }
      ],
      "payable": false,
      "stateMutability": "view",
      "type": "function"
    },
    {
      "constant": false,
      "inputs": [],
      "name": "withdraw",
      "outputs": [],
      "payable": false,
      "stateMutability": "nonpayable",
      "type": "function"
    }
  ],
  "bytecode": "0x608060405234801561001057600080fd5b50604051602080610baa8339810180604052602081101561003057600080fd5b810190808051906020019092919050505033600160006101000a81548173ffffffffffffffffffffffffffffffffffffffff021916908373ffffffffffffffffffffffffffffffffffffffff1602179055508060038190555050610b11806100996000396000f3fe608060405260043610610099576000357c0100000000000000000000000000000000000000000000000000000000900463ffffffff1680633ccfd60b1461009e57806345e63f22146100b5578063574e5630146100e05780636630f88f146101455780637f6b2809146102005780638622a6891461022b57806386f79edb146102565780638da5cb5b14610344578063d4adef5d1461039b575b600080fd5b3480156100aa57600080fd5b506100b36103c6565b005b3480156100c157600080fd5b506100ca610538565b6040518082815260200191505060405180910390f35b3480156100ec57600080fd5b5061012f6004803603602081101561010357600080fd5b81019080803573ffffffffffffffffffffffffffffffffffffffff169060200190929190505050610544565b6040518082815260200191505060405180910390f35b6101fe6004803603602081101561015b57600080fd5b810190808035906020019064010000000081111561017857600080fd5b82018360208201111561018a57600080fd5b803590602001918460018302840111640100000000831117156101ac57600080fd5b91908080601f016020809104026020016040519081016040528093929190818152602001838380828437600081840152601f19601f82011690508083019250505050505050919291929050505061055c565b005b34801561020c57600080fd5b50610215610851565b6040518082815260200191505060405180910390f35b34801561023757600080fd5b50610240610898565b6040518082815260200191505060405180910390f35b34801561026257600080fd5b5061028f6004803603602081101561027957600080fd5b810190808035906020019092919050505061089e565b604051808473ffffffffffffffffffffffffffffffffffffffff1673ffffffffffffffffffffffffffffffffffffffff16815260200180602001838152602001828103825284818151815260200191508051906020019080838360005b838110156103075780820151818401526020810190506102ec565b50505050905090810190601f1680156103345780820380516001836020036101000a031916815260200191505b5094505050505060405180910390f35b34801561035057600080fd5b5061035961099c565b604051808273ffffffffffffffffffffffffffffffffffffffff1673ffffffffffffffffffffffffffffffffffffffff16815260200191505060405180910390f35b3480156103a757600080fd5b506103b06109c2565b6040518082815260200191505060405180910390f35b60035442111515610465576040517f08c379a00000000000000000000000000000000000000000000000000000000081526004018080602001828103825260388152602001807f596f752063616e6e6f7420776974686472617720756e74696c2061667465722081526020017f7468652065787069726174696f6e2074696d657374616d70000000000000000081525060400191505060405180910390fd5b6000600260003373ffffffffffffffffffffffffffffffffffffffff1673ffffffffffffffffffffffffffffffffffffffff1681526020019081526020016000205490506000600260003373ffffffffffffffffffffffffffffffffffffffff1673ffffffffffffffffffffffffffffffffffffffff168152602001908152602001600020819055503373ffffffffffffffffffffffffffffffffffffffff166108fc829081150290604051600060405180830381858888f19350505050158015610534573d6000803e3d6000fd5b5050565b60008080549050905090565b60026020528060005260406000206000915090505481565b600081511115156105fb576040517f08c379a00000000000000000000000000000000000000000000000000000000081526004018080602001828103825260218152602001807f416e20656d707479206d6573736167652063616e6e6f7420626520706f73746581526020017f640000000000000000000000000000000000000000000000000000000000000081525060400191505060405180910390fd5b600034111515610673576040517f08c379a000000000000000000000000000000000000000000000000000000000815260040180806020018281038252600f8152602001807f4e6f20455448207761732073656e74000000000000000000000000000000000081525060200191505060405180910390fd5b600080805490501115610725576106886109c2565b34141515610724576040517f08c379a00000000000000000000000000000000000000000000000000000000081526004018080602001828103825260248152602001807f54686520696e636f727265637420616d6f756e74206f6620455448207761732081526020017f73656e740000000000000000000000000000000000000000000000000000000081525060400191505060405180910390fd5b5b61072d610a08565b6060604051908101604052803373ffffffffffffffffffffffffffffffffffffffff1681526020018381526020013481525090506000819080600181540180825580915050906001820390600052602060002090600302016000909192909190915060008201518160000160006101000a81548173ffffffffffffffffffffffffffffffffffffffff021916908373ffffffffffffffffffffffffffffffffffffffff16021790555060208201518160010190805190602001906107f2929190610a40565b506040820151816002015550505034600260003373ffffffffffffffffffffffffffffffffffffffff1673ffffffffffffffffffffffffffffffffffffffff168152602001908152602001600020600082825401925050819055505050565b6000600260003373ffffffffffffffffffffffffffffffffffffffff1673ffffffffffffffffffffffffffffffffffffffff16815260200190815260200160002054905090565b60035481565b600060606000806000858154811015156108b457fe5b906000526020600020906003020190508060000160009054906101000a900473ffffffffffffffffffffffffffffffffffffffff16816001018260020154818054600181600116156101000203166002900480601f0160208091040260200160405190810160405280929190818152602001828054600181600116156101000203166002900480156109875780601f1061095c57610100808354040283529160200191610987565b820191906000526020600020905b81548152906001019060200180831161096a57829003601f168201915b50505050509150935093509350509193909250565b600160009054906101000a900473ffffffffffffffffffffffffffffffffffffffff1681565b60008060006001600080549050038154811015156109dc57fe5b90600052602060002090600302016002015490506064600782028115156109ff57fe5b04810191505090565b606060405190810160405280600073ffffffffffffffffffffffffffffffffffffffff16815260200160608152602001600081525090565b828054600181600116156101000203166002900490600052602060002090601f016020900481019282601f10610a8157805160ff1916838001178555610aaf565b82800160010185558215610aaf579182015b82811115610aae578251825591602001919060010190610a93565b5b509050610abc9190610ac0565b5090565b610ae291905b80821115610ade576000816000905550600101610ac6565b5090565b9056fea165627a7a72305820a9a19d9a75802b1feef882874d85817715def0f5ce27f37cf98477f02c71960c0029",
  "source": "pragma solidity >=0.4.21 <0.6.0;\r\n\r\ncontract SimpleStorage {\r\n\r\n  struct Message {\r\n    address author;\r\n    string text;\r\n    uint value;\r\n  }\r\n\r\n  Message[] messages;\r\n\r\n  address public owner;\r\n\r\n  mapping(address => uint) public authorBalances;\r\n\r\n  uint256 public expiresAt;\r\n\r\n  constructor(uint256 _expiresAt) public {\r\n    owner = msg.sender;\r\n    expiresAt = _expiresAt;\r\n  }\r\n\r\n  function getNumberOfMessages() public view returns (uint num)\r\n  {\r\n    return messages.length;\r\n  }\r\n\r\n  function getMessage(uint index)\r\n    public\r\n    view\r\n    returns (\r\n      address author,\r\n      string memory text,\r\n      uint value\r\n    )\r\n  {\r\n    Message storage m = messages[index];\r\n    return (\r\n      m.author,\r\n      m.text,\r\n      m.value\r\n    );\r\n  }\r\n\r\n  function postMessage(string memory _text) public payable\r\n  {\r\n    require(bytes(_text).length > 0, \"An empty message cannot be posted\");\r\n    require(msg.value > 0, \"No ETH was sent\");\r\n    if(messages.length > 0) {\r\n      require(msg.value == getNextValue(), \"The incorrect amount of ETH was sent\");\r\n    }\r\n\r\n    Message memory m = Message({\r\n      author: msg.sender,\r\n      text: _text,\r\n      value: msg.value\r\n    });\r\n    messages.push(m);\r\n\r\n    authorBalances[msg.sender] += msg.value;\r\n  }\r\n\r\n  function getNextValue() public view returns (uint value)\r\n  {\r\n    uint currentValue = messages[messages.length - 1].value;\r\n    return currentValue + (currentValue * 7 / 100);\r\n  }\r\n\r\n  function getAuthorBalance() public view returns(uint num)\r\n  {\r\n    return authorBalances[msg.sender];\r\n  }\r\n\r\n  function withdraw() public\r\n  {\r\n    require(now > expiresAt, \"You cannot withdraw until after the expiration timestamp\"); // solium-disable-line security/no-block-members\r\n    uint amount = authorBalances[msg.sender];\r\n    authorBalances[msg.sender] = 0;\r\n    msg.sender.transfer(amount);\r\n  }\r\n}",
  "sourcePath": "C:/Users/mvandani/Code/Sylph/Project3/src/contracts/SimpleStorage.sol",
  "compiler": {
    "name": "solc",
    "version": "0.5.0+commit.1d4f565a.Emscripten.clang"
  },
  "schemaVersion": "3.0.9",
  "updatedAt": "2019-11-08T16:37:35.039Z",
  "devdoc": {
    "methods": {}
  },
  "userdoc": {
    "methods": {}
  }
}